:100000000C94A3250C94CB250C94CB250C94CB25D8
:100010000C94CB250C94CB250C94CB250C94353328
:100020000C94CB250C94CB250C94CB250C94CB2590
:100030000C94CB250C94CB250C94CB250C94CB2580
:100040000C94A1330C94CB250C94262F0C94582F90
:100050000C94CB250C94CB250C94CB250C94CB2560
:100060000C94CB250C94CB256F707469626F6F7400
:100070005F61746D6567613332382E6865780000A2
:1000800000000000000061746D6567613332385014
:1000900000000F953FE2D6FE000F000000003FE297
:1000A000D6FE0080800A3A31303030303030303087
:1000B00043393436323030304339343841303030DF
:1000C00043393438413030304339343841303037B7
:1000D000300A3A3130303031303030304339343812
:1000E000413030304339343841303030433934389E
:1000F000413030304339343841303033380A3A31C6
:1001000030303032303030304339343841303030B4
:10011000433934384130303043393438413030306D
:100120004339343841303032380A3A3130303033A4
:10013000303030304339343841303030433934385E
:10014000413030304339343841303030433934383D
:1001500041303031380A3A3130303034303030309C
:10016000433934464330323043393438413030300B
:10017000433934333330323043393436353032302A
:10018000430A3A313030303530303030433934384A
:1001900041303030433934384130303043393438ED
:1001A000413030304339343841303046380A3A3102
:1001B0003030303630303030433934384130303000
:1001C00043393438413030303030303030303930ED
:1001D0003030333032303032450A3A313030303717
:1001E00030303030303034303530383030303030FE
:1001F00030303030303030303030303030303030FF
:1002000030303136450A3A313030303830303030E5
:1002100032303430383130323034303830303130C0
:1002200032303430383130323030313032303432B4
:10023000430A3A31303030393030303038313032B2
:10024000303430383034303034303430343034308E
:10025000343034303430343032303230340A3A31A1
:100260003030304130303030323032303230323075
:100270003330333033303330333033303230323068
:100280003330303030303032460A3A31303030425C
:100290003030303030323530303238303032423039
:1002A000303030303030303030323430303237303F
:1002B00030324135330A3A3130303043303030302B
:1002C00030303039353032313132343146424543C5
:1002D00046454644384530444542464344424645F7
:1002E000380A3A31303030443030303131453041E5
:1002F000304530423145304543453646394530304A
:10030000324330303539303044393237440A3A31AB
:100310003030304530303041303331423130374485
:100320003946373231453041304531423145303040
:100330003143303144393233340A3A313030304687
:100340003030304142334242323037453146373126
:100350003045304332453644304530303443303216
:1003600031393743350A3A31303031303030304668
:1003700045303130453934414530344331333644EA
:1003800031303743394637304539344544303237D8
:10039000430A3A3130303131303030304339344231
:1003A0003430343043393430303030313039323118
:1003B000343031363845453733453038370A3A31ED
:1003C00030303132303030383045303930453030EF
:1003D00045393437373033363145303834453130AC
:1003E0004539343230303437370A3A3130303133EE
:1003F0003030303631453038384530304539343298
:100400003030343631453038384530304539343580
:1004100043303441350A3A313030313430303032C3
:10042000364530343045303536453936304530374D
:100430003045303835453139314530304339343441
:10044000330A3A31303031353030304433303130A6
:1004500046393331463933434639334446393331EB
:10046000314530433045304446453335300A3A3122
:100470003030313630303038354531393145303033
:1004800045393430443031383932423339463138E5
:100490003545313931453035330A3A31303031372D
:1004A0003030303045393432373031383033333210
:1004B00039463038393336333146303830333244C8
:1004C00031463439320A3A31303031383030303018
:1004D0003943303130393331343031454343463696
:1004E0004645333835453139314530304539343674
:1004F000380A3A31303031393030303641303131EC
:1005000030433038303931313430313838323336A5
:10051000314630363145303834453135430A3A3189
:100520003030314130303030453934354330344665
:100530003839343130393242303030313039323874
:100540003030303134424337440A3A31303031426E
:10055000303030464530313039393531303932314B
:100560003430314433434630453934343630333017
:1005700030393143440A3A31303031433030303150
:10058000303031313039313131303132303931314F
:100590003230313330393131333031444330314608
:1005A000350A3A313030314430303043423031381E
:1005B00030314239313042413230424233304238B8
:1005C000353346393134304131303537360A3A31F6
:1005D00030303145303030423130354230463036BF
:1005E000314530383445313045393435433034388D
:1005F0003645393930453033320A3A3130303146B8
:10060000303030304539344233303336304530388D
:10061000344531304539343543303430453934345C
:1006200036303331350A3A313030323030303036CE
:10063000303933313030313730393331313031388E
:100640003039333132303139303933313330313779
:10065000380A3A3130303231303030444639314363
:1006600046393131463931304639313038393546FD
:10067000433031393138443232384435370A3A312F
:100680003030323230303038393246393045303817
:1006900030354339463446383231423931303938D1
:1006A0004637333939323745330A3A31303032330D
:1006B00030303030383935464330313931384438CC
:1006C000323844393831373331463038323844459E
:1006D00038304632310A3A313030323430303046F8
:1006E000313144383538443930453030383935388F
:1006F000464546394645463038393546433031441B
:10070000420A3A31303032353030303931384438BD
:10071000323844393831373631463038323844444B
:10072000463031413830464231314446440A3A314C
:10073000303032363030303544393638433931395B
:1007400032384439463546394637333932384639F6
:100750003045303038393532310A3A31303032377D
:1007600030303038464546394645463038393538D8
:1007700042453839324530383932423439463038DA
:1007800030453041330A3A31303032383030303948
:1007900030453038393242323946303045393438D4
:1007A00042303238313131304339343030303044F6
:1007B000300A3A313030323930303030383935461D
:1007C0004330313834384444463031413830464281
:1007D000313144413335414246344634330A3A31AB
:1007E00030303241303030324339313834384439A6
:1007F0003045303031393638463733393932373889
:100800003438464136383937350A3A313030324299
:100810003030304237383932433933413038394259
:10082000313839384339313830363438433933394F
:1008300033384439430A3A3130303243303030387B
:100840003438443938313330364330303238384632
:100850003338394530324438303831384637443807
:10086000430A3A3130303244303030383038333067
:1008700038393545463932464639323046393331D2
:10088000463933434639334446393334340A3A31EE
:1008900030303245303030454330313831453038F2
:1008A000383846394238443843384439383133309F
:1008B0003543304538383938370A3A3130303246E6
:1008C00030303046393839383038313835464432AE
:1008D000344330463632453042384431304530308A
:1008E00046354646420A3A313030333030303031C6
:1008F0004634463046373331313237453032453869
:100900004338444538313230434330304642363143
:10091000330A3A31303033313030303037464346A5
:100920004143464538383946393839383038313816
:10093000354646463543464345303130360A3A312E
:10094000303033323030303045393434393031465C
:1009500031434638423844464530314538304646C2
:100960003131444533354143380A3A31303033333D
:1009700030303046463446463038323042384645CC
:1009800041383946423839383038313830363230EB
:1009900037433043320A3A31303033343030304527
:1009A000453839464638393630383345383839468F
:1009B00039383938303831383036343830383346D1
:1009C000300A3A3130303335303030383145303913
:1009D000304530444639314346393131463931307A
:1009E000463931464639304546393039450A3A317B
:1009F000303033363030303038393543463933448F
:100A00004639334543303138383844383832334347
:100A10003946304541383934330A3A31303033378A
:100A20003030304642383938303831383546443045
:100A3000354330413838394239383938433931381B
:100A400036464439450A3A31303033383030303068
:100A500046433030464236303746434635434638C3
:100A600030383138354646463243464138383939D0
:100A7000420A3A313030333930303042393839383F
:100A80004339313835464645444346434530313095
:100A9000453934343930314537434634440A3A31E4
:100AA00030303341303030444639314346393130CB
:100AB000383935434639324446393245463932466B
:100AC0004639323146393334410A3A3130303342D3
:100AD000303030434639334446393345433031367C
:100AE0004130313742303131323246363045383795
:100AF00034453842300A3A313030334330303038C0
:100B00004545313930453041373031393630313073
:100B1000453934384330344441303143393031334E
:100B2000380A3A313030334430303030313937419F
:100B3000313039423130394236393541373935393A
:100B4000373935383739353943303142350A3A315A
:100B50003030334530303045383839463938393817
:100B60003245303830383332313135383045313331
:100B70003830374138463034370A3A31303033462E
:100B800030303045383839463938393130383236F6
:100B900030453437324534384645303930453041B8
:100BA00037303135370A3A3130303430303030393F
:100BB00036303130453934384330344441303143B4
:100BC00039303130313937413130394231303938CB
:100BD000320A3A31303034313030304236393541F2
:100BE0003739353937393538373935394330314583
:100BF000433835464438353330383343410A3A3187
:100C0000303034323030304545383546463835326C
:100C1000303833313838454543383946443839312E
:100C20003038334541383938420A3A31303034337C
:100C30003030304642383938303831383036313853
:100C40003038334541383946423839383038313810
:100C500038363037330A3A31303034343030303887
:100C600030383345413839464238393830383138F0
:100C700030363838303833454138394642383943D0
:100C8000460A3A3130303435303030383038313847
:100C900046374438303833444639314346393131A8
:100CA000463931464639304546393046450A3A31AB
:100CB00030303436303030444639304346393030C5
:100CC000383935314639323046393230464236309D
:100CD0004639323131323433340A3A3130303437F4
:100CE0003030303246393338463933394639334576
:100CF000463933464639334530393132353031465D
:100D000030393133410A3A313030343830303032D2
:100D10003630313830383145303931324230314671
:100D20003039313243303138324644313243304148
:100D3000380A3A313030343930303039303831389F
:100D4000303931324530313846354638463733321E
:100D5000303931324630313832313741310A3A3167
:100D60003030344130303035314630453039313231
:100D700045303146304530454235454645344639A3
:100D80003538463830393343450A3A313030344209
:100D90003030303245303130314330383038314600
:100DA000463931454639313946393138463931329B
:100DB00046393132420A3A31303034433030303003
:100DC0004639303046424530463930314639303187
:100DD000383935314639323046393230464236417B
:100DE000450A3A31303034443030303046393231CF
:100DF0003132343246393333463933344639333578
:100E0000463933364639333746393343410A3A3166
:100E10003030344530303038463933394639334153
:100E200046393342463933454639334646393338F5
:100E30003545313931453033390A3A31303034466D
:100E40003030303045393434393031464639314527
:100E500046393142463931414639313946393138DE
:100E600046393132300A3A3130303530303030376F
:100E700046393136463931354639313446393133E0
:100E800046393132463931304639303046424530C4
:100E9000460A3A3130303531303030304639303131
:100EA00046393031383935383545313931453030CA
:100EB000453934304430313231453035380A3A31F1
:100EC00030303532303030383932423039463432D1
:100ED000304530383232463038393545354531467F
:100EE0003145303133383241300A3A3130303533E0
:100EF0003030303132383238384545393345304179
:100F00003045304230453038343833393538334164
:100F100036383345360A3A313030353430303042A5
:100F20003738333834453039314530393138333852
:100F3000303833383545433930453039353837382E
:100F4000380A3A3130303535303030383438373887
:100F50003445433930453039373837383638373803
:100F6000304543393045303931384238440A3A3116
:100F7000303035363030303830384238314543390A
:100F800030453039333842383238423832454339C7
:100F90003045303935384237410A3A31303035370B
:100FA00030303038343842383645433930453039BE
:100FB00037384238363842313138453132384531A8
:100FC00033384537370A3A31303035383030303100
:100FD000343845303839354346393244463932455C
:100FE000463932464639323046393331463933464E
:100FF000340A3A31303035393030304346393344B1
:10100000463933364330313741303138423031435D
:10101000304530443045304345313545300A3A316A
:101020003030354130303044463035383146304448
:101030003830313644393138443031443630314536
:101040004439314643393141460A3A31303035422C
:101050003030303031393046303831453032444329
:101060003630313039393538393242313146303223
:1010700031393635420A3A31303035433030304537
:1010800045434637453031433730314446393143A3
:1010900046393131463931304639314646393037B3
:1010A000380A3A31303035443030304546393044F2
:1010B00046393043463930303839353038393530B3
:1010C000453934424330333045393439310A3A31C5
:1010D00030303545303030454330323045393438A2
:1010E0004330304342453344314530304539344153
:1010F0003930303230393738450A3A3130303546B8
:101100003030304531463330453934334230314662
:10111000394346314639323046393230464236302C
:1011200046393243390A3A31303036303030303196
:10113000313234324639333346393338463933392C
:101140004639334146393342463933383039313202
:10115000380A3A313030363130303042333031397C
:101160003039314234303141303931423530314219
:10117000303931423630313330393142300A3A3148
:101180003030363230303042323031323645303223
:1011900033304632443337323046343032393641D8
:1011A0003131444231314434330A3A31303036330C
:1011B00030303030354330323945383233304630D4
:1011C000333936413131444231314432303933429E
:1011D00032303132370A3A3130303634303030380C
:1011E00030393342333031393039334234303141A0
:1011F0003039334235303142303933423630313292
:10120000380A3A31303036353030303830393142C2
:10121000373031393039314238303141303931426B
:10122000393031423039314241303131300A3A318E
:101230003030363630303030313936413131444259
:101240003131443830393342373031393039334233
:101250003830314130393338440A3A31303036375A
:10126000303030423930314230393342413031420E
:1012700046393141463931394639313846393133C9
:1012800046393131320A3A31303036383030303246
:1012900046393130463930304642453046393031B2
:1012A0004639303138393532464237463839344498
:1012B000310A3A3130303639303030363039314217
:1012C00033303137303931423430313830393142CE
:1012D000353031393039314236303136300A3A31F1
:1012E000303036413030303246424630383935338E
:1012F000464237463839343830393142373031395F
:101300003039314238303139410A3A3130303642A1
:101310003030304130393142393031423039314268
:10132000413031323642354138394230354330323E
:1013300046334630320A3A3130303643303030317D
:10134000394630303139364131314442313144331C
:1013500046424642413246413932463938324637B2
:10136000380A3A3130303644303030383832373855
:1013700032304639313144413131444231314442D5
:10138000433031434430313433453046320A3A3108
:1013900030303645303030363630463737314638E3
:1013A00038314639393146344139354431463730A0
:1013B0003839353846393233420A3A3130303646D8
:1013C000303030394639324146393242463932437B
:1013D0004639324446393245463932464639323644
:1013E00042303145370A3A313030373030303037DB
:1013F0004330313045393435323033344230313591
:101400004330314331313444313034453130343379
:10141000440A3A31303037313030304631303430B0
:10142000314631304539343842303430453934353D
:10143000323033444330314342303132310A3A3171
:10144000303037323030303838313939393039414D
:1014500041303942423039383833453933343041FC
:101460003130354231303531410A3A31303037335D
:1014700030303036304633323145304332314144FA
:1014800031303845313038463130383838454538D4
:1014900038304543320A3A31303037343030303822
:1014A000334530393831454131314342313143439D
:1014B00031313444313034453130344631303438D0
:1014C000320A3A31303037353030303139463744EE
:1014D0004243464646393045463930444639304322
:1014E000463930424639304146393037350A3A318B
:1014F0003030373630303039463930384639303090
:101500003839353833333039313035323846303880
:101510003830463939314645450A3A313030373767
:101520003030303034393730313937463146373062
:10153000383935373839343834423538323630383E
:1015400034424435390A3A31303037383030303867
:101550003442353831363038344244383542353803
:101560003236303835424438354235383136303904
:10157000350A3A3130303739303030383542444529
:1015800045453646304530383038313831363038D8
:10159000303833453145384630453046350A3A31E2
:1015A00030303741303030313038323830383138FF
:1015B00032363038303833383038313831363038E8
:1015C0003038334530453832340A3A3130303742DA
:1015D00030303046304530383038313831363038B8
:1015E000303833453145424630453038303831386F
:1015F00034363030330A3A313030374330303038D7
:10160000303833453045424630453038303831384F
:101610003136303830383345414537463045303043
:10162000350A3A313030374430303038303831389C
:101630003436303830383338303831383236303864
:10164000303833383038313845374633440A3A3148
:101650003030374530303038303833383038313842
:101660003036383830383331303932433130303039
:101670003839353834333036360A3A313030374637
:101680003030303831463032384634383233303901
:1016900039463038333330413146303038393538D7
:1016A00038333039380A3A31303038303030304120
:1016B00039463038393330423946303835333044A2
:1016C0003146343830393138303030384637444498
:1016D000360A3A31303038313030303033433038F8
:1016E00030393138303030384637373830393338A0
:1016F000303030303839353834423531350A3A31C6
:101700003030383230303038463737303243303886
:101710003442353846374438344244303839353825
:101720003039314230303031430A3A313030383399
:101730003030303846373730334330383039314243
:10174000303030384637443830393342303030303A
:1017500038393543320A3A3130303834303030435A
:1017600046393344463933393045304643303145C4
:1017700031353846463446323439314643303132D9
:10178000450A3A313030383530303045413536460B
:1017900046344638343931383832333631463139C7
:1017A000304530383830463939314633390A3A31E4
:1017B00030303836303030464330314539353446B4
:1017C0004634464335393144343931464330314566
:1017D0003335354646344643320A3A3130303837AD
:1017E00030303041353931423439313631313130B0
:1017F000394330394642374638393438383831324F
:1018000030393532320A3A313030383830303038C9
:101810003232333838383345433931324532333058
:10182000424330363233303631463439464237451A
:10183000320A3A313030383930303046383934387D
:101840003838313332324633303935383332333841
:10185000383833454339313245324231360A3A312C
:1018600030303841303030324339333946424630F7
:1018700036433038464237463839344538383132C5
:101880004532423238383332360A3A313030384213
:10189000303030384642464446393143463931309B
:1018A0003839353146393343463933444639333292
:1018B00038324641300A3A313030384330303033F4
:1018C000304530463930314538353946463446386A
:1018D000343931463930314531353846463446465B
:1018E000390A3A31303038443030304434393146B6
:1018F0003930314541353646463446433439314333
:10190000433233433146303136324646310A3A317A
:101910003030384530303038313131304539344667
:1019200037303345433246463045304545304646EC
:101930004631464533353539430A3A313030384639
:101940003030304646344641353931423439313908
:10195000464237463839343131313130344330380A
:1019600043393134410A3A31303039303030304443
:1019700030393544383233303243304543393144DD
:101980004532424443393339464246444639313080
:10199000320A3A3130303931303030434639313122
:1019A00046393130383935303839354131453231C1
:1019B000413245414131424242314232370A3A31A5
:1019C00030303932303030464430313044433041A9
:1019D000413146424231464545314646463146410F
:1019E0003231374233303742420A3A3130303933BC
:1019F000303030453430374635303732304630417C
:101A0000323142423330424534304246353042363C
:101A100036314644310A3A3130303934303030379B
:101A20003731463838314639393146314139343623
:101A30003946373630393537303935383039353938
:101A4000350A3A313030393530303039303935397E
:101A500042303141433031424430314346303130FD
:101A6000383935454530464646314645330A3A30E1
:101A700043303936303030303539304634393145FD
:101A800030324430393934463839344646434636A4
:101A9000440A3A313030393643303030303030302B
:101AA00030303036413031433230323044303132F0
:101AB000373031313930314231303134410A3A3105
:101AC00030374530303030303143304342433031AD
:101AD000313234383442373838323336314630399F
:101AE0003832463941373045390A3A313037453195
:101AF0003030303932333034314630383146463088
:101B00003243303937454639344246323832453827
:101B100030453039450A3A3130374532303030417E
:101B20003744304545433038324530383039334317
:101B30003030303838453138303933433130304245
:101B4000420A3A3130374533303030383645303854
:101B50003039334332303038394531383039334316
:101B6000343030384645303938443045460A3A3109
:101B700030374534303030393345304539324544DB
:101B800044323444333934323545304332324533CC
:101B90003145314233324535380A3A3130374535EF
:101BA00030303038334430383133343631463438DD
:101BB00030443031383246393044303132333845B0
:101BC00039463041420A3A313037453630303031CB
:101BD000313338313146343838453030314330389C
:101BE0003345303646443036424330383233343170
:101BF000380A3A31303745373030303131463438B1
:101C00003445313033433038353334313946343864
:101C1000354530383744303632433033310A3A3183
:101C2000303745383030303835333533394634364F
:101C300039443043383246363744304438324643EC
:101C40004330464444314643360A3A313037453909
:101C50003030303538433038363335323146343829
:101C600034453037394430383045304536434638CE
:101C700034333637450A3A31303745413030303029
:101C800039463032444330353944303538443046B3
:101C900038324535364430413832453030453039B8
:101CA000390A3A31303745423030303131453035FC
:101CB00032443046383031383139333846303146A5
:101CC000453132464143463545443030420A3A3187
:101CD0003037454330303046354534414631323077
:101CE0003143304646434646453031453742454507
:101CF0003839353037423641420A3A313037454477
:101D0000303030303046434644434641304530421F
:101D10003145304645303138443931394439313034
:101D200043303137310A3A3130374545303030446D
:101D30003742454538393531313234333239364618
:101D400041313246374346464530314337424532CA
:101D5000440A3A313037454630303045383935302D
:101D60003742363030464346444346423742454583
:101D7000383935323343303834333746300A3A3124
:101D800030374630303030373146343241443032EB
:101D900039443046383245323744303338443038AD
:101DA0004530314638303136430A3A3130374631E2
:101DB00030303038353931384630313141443046B1
:101DC0004139344631313046394346313343303876
:101DD00035333745420A3A313037463230303033C6
:101DE0003946343243443038454531313144303856
:101DF000354539304644303846453039444346420B
:101E0000300A3A31303746333030303831333533B9
:101E1000394634383045303143443032314430383B
:101E2000304531303644303630433043410A3A3160
:101E3000303746343030303031433031434430383D
:101E4000304531303144303833434639303931430D
:101E50003030303935464638420A3A313037463527
:101E600030303046434346383039334336303030F3
:101E700038393538303931433030303837464646D6
:101E800043434642450A3A313037463630303038DF
:101E900030393143303030383446443031433041CA
:101EA00038393538303931433630303038393534D7
:101EB000440A3A31303746373030304530453646BF
:101EC00030453039384531393038333830383330AF
:101ED000383935454444463830333243310A3A3193
:101EE0003037463830303031394630383845304672
:101EF00035444646464346383445314446434643D6
:101F00004639334338324637320A3A313037463968
:101F10003030304533444643313530453946374318
:101F2000463931463143464643303130413031360F
:101F300037424645300A3A31303746413030304535
:101F40003839353131323430374236303046434615
:101F500044434636363730323946303435324233F0
:101F6000420A3A304137464230303031394634380F
:101F700031453138374246453839353038393546BC
:101F8000380A3A303237464645303030303038370C
:101F9000390A3A3034303030303033303030303746
:101FA00045303037420A3A30303030303030314608
:101FB000460A202020200000000000000000000051
:101FC0000000000000000000000000000000000011
:101FD0000000000000000000000000000000000001
:101FE00000000000000000000000000000000000F1
:101FF00000000000000000000000000000000000E1
:104AD00000000000000000000000000000020000D4
:104AE00000090003020000040508000000000000A7
:104AF00000000000000102040810204080010204B0
:104B0000081020010204081020408040040404041E
:104B10000404040402020202020203030303030367
:104B2000020203000000002300260029000000000C
:104B300000250028002B0000000000240027002A88
:104B40000000682D882F11241FBECFEFD8E0DEBFF4
:104B5000CDBF14E0A0E0B1E0E0E5FBE602C00590C7
:104B60000D92AE38B107D9F725E0AEE8B4E001C048
:104B70001D92A33DB207E1F715E2C3EAD5E204C0F6
:104B80002197FE010E949135C13AD107C9F70E94D1
:104B900092330C94A6350C94000026E040E051EED0
:104BA00060E070E088E195E00E94C62E64E071E06C
:104BB00088E195E00E94FA2F61E081E10E94B03423
:104BC00061E08EE00E94B03462E070E08EE090E040
:104BD0000E94862D61E088E00E94B03462E070E0BF
:104BE00088E090E00E94862D60E08FE00E94B03463
:104BF00061E08FE00E94EC3461E089E00E94B03413
:104C0000109289001092880081E090E090938700D4
:104C10008093860082E88093800089E18093810000
:104C20000895BC0188E195E00E94FA2F61E088E0D8
:104C30000E94EC3424EF31E040E050E060EA7FE095
:104C400081E10E949330F6CF60E08DE00E94B034A5
:104C50000E94B62D8CB583608CBD8DB58E7F8DBDC9
:104C600061E08AE00E94B03461E08AE00E94EC34A6
:104C700061E08DE00E94B03460E08DE00E94EC3491
:104C800062E370E080E090E00E94103460E08AE02F
:104C90000E94EC3462E370E080E090E00E94103407
:104CA00060E08CE00E94B03461E08BE00E94B034A0
:104CB00020E040E063E58CEA0E947B2981E090E0FF
:104CC00090930F0580930E0508950E94EC2D60E0EF
:104CD0008CE00E94EC3460E08CE00E94B03460E034
:104CE0008BE00E94EC3460E08BE00E94B03460E026
:104CF0008DE00E94EC3460E08DE00E94B03460E012
:104D00008AE00E94EC3460E08AE00E94B0341092A5
:104D10000F0510920E05089561E08EE00E94B034F8
:104D200061E08EE00E94EC3460E08AE00E94EC34A6
:104D300061E08AE00E94B03464E670E080E090E0D8
:104D40000E94103468E571E088E195E00E94F42F3C
:104D50000E9424266EE671E088E195E00E94FA2F19
:104D600081E008950E94652660E08EE00E94EC34A8
:104D700081E008955F926F927F928F929F92AF929F
:104D8000BF92CF92DF92EF92FF920F931F93CF9338
:104D9000DF9364E771E088E195E00E94FA2F8FE0ED
:104DA0000E941B35892B39F088E195E00E941A2E6C
:104DB00087349105A1F70E948C260E9499290097BB
:104DC00019F48AE991E007C00E940528EC01892BBB
:104DD00021F489EA91E00E94112688E195E00E9481
:104DE000F62F64EB71E088E195E00E94FA2F0E94B3
:104DF000582D8E01045D1F4FC8010E941B2C81118C
:104E000003C081EC91E0E7CF6E0186E3C80ED11CB0
:104E1000B601C8010E94CD29811103C088ED91E03F
:104E2000DACF6FEE71E088E195E00E94FA2F0E94E0
:104E300065260E9424265E018DE3A80EB11CFE01AA
:104E4000FC96549064E072E088E195E00E94F42FB3
:104E50004AE050E0652D88E195E00E946930FE014E
:104E6000FA968590949060E172E088E195E00E9466
:104E7000F42F4AE050E0B40188E195E00E948130CF
:104E8000750100E010E0652C712C0815190598F5E6
:104E9000E114F10481F16CE172E088E195E00E9497
:104EA000F42F40E150E0B80188E195E00E948130A4
:104EB0002EE834E0452DB801C7010E944B287C0143
:104EC000EEE8F4E040E081E0451531F091919F3F3C
:104ED00009F080E04F5FF8CF81110AC0B8018EE879
:104EE00094E00E94E92C811103C08EE292E073CF1E
:104EF000060D171DCACFE196CE010E941B2C8823F8
:104F000009F47FCF64E670E080E090E00E94103406
:104F10000E94652664E670E080E090E00E94103414
:104F20000E94242664E670E080E090E00E94103445
:104F300067E472E088E195E00E94FA2FC5010E94C3
:104F4000C32A811103C08AE592E045CF60E772E091
:104F500088E195E00E94FA2FB601CE010E94CD298A
:104F6000882309F45BCF6BE872E088E195E00E944A
:104F7000FA2F0E94B22628EC30E040E050E060EAD0
:104F80007FE081E1DF91CF911F910F91FF90EF9032
:104F9000DF90CF90BF90AF909F908F907F906F9059
:104FA0005F900C94933020911605222399F04FB70F
:104FB000F89420911605213059F42DB3209314054F
:104FC0003DB320911505209523232DBB4FBF02C073
:104FD000409314058CBD9DBD08958EBD00000DB499
:104FE00007FEFDCF8EB5089580911605882361F0E8
:104FF0009FB7F8942091160580911405213019F47B
:105000008DBB9FBF08958FBF08950F931F93CF93BC
:10501000DF938C0165EA72E088E195E00E94FA2F47
:1050200090910001A1E0B1E080E0891721F1CD91DC
:10503000DD91209749F1FE01BA9625913491201710
:10504000310711F567EC72E088E195E00E94F42FDA
:10505000CE010E94A52D61ED72E088E195E00E94ED
:10506000F42FCE014E960E94A52D88E195E00E9476
:10507000F62FCE010BC06CEB72E088E195E00E9448
:10508000FA2F80E090E002C08F5FCFCFDF91CF9109
:105090001F910F9108952F923F924F925F926F92BE
:1050A0007F928F929F92AF92BF92CF92DF92EF92B8
:1050B000FF920F931F93CF93DF9300D000D01F92E6
:1050C000CDB7DEB77C014B015901922FF9018FEF6B
:1050D0002E2F291B241720F03401640E711C0BC0E5
:1050E0008193F6CF78018FEFE81AF80AF70131972C
:1050F000E491EA30C1F7FD82EC820C811D810F5FE3
:105100001F4FEC81FD818491803219F41D830C8343
:10511000F4CF97EF980F9230C8F38A3331F088EDCF
:1051200092E00E9411267801CDC0F80184910E947E
:10513000742D582EEC81FD81329684910E94742D3D
:10514000482EEC81FD81339684910E94742D282E87
:10515000229480EF2822EC81FD81349684910E9474
:10516000742D280EEC81FD81359684910E94742D5A
:10517000382E329490EF39220C811D81095F1F4F28
:10518000EC81FD81369684910E94742D380EC22CDC
:10519000D12CDC2CCC24C30CD11CC614D70408F0B1
:1051A00091C0F80184910E94742D8295807F89833B
:1051B0000C811D81075F1F4FEC81FD813896849122
:1051C0000E94742DF9818F0F813009F479C081110B
:1051D00089CF842D90E09C0140E1549E200D311D2B
:1051E00011242901320C320E39821A820EC02C8110
:1051F0003D812815390530F0281939092A0D3B1D44
:10520000F9018083FA81FF5FFA83FA81EF2FF0E0E2
:10521000FD83EC8398012E5F3F4F1901E415F505DE
:1052200010F5F80184910E94742D8295807F8B8304
:105230008101F101319784910E94742DFB818F0FC0
:105240002981280F2983EC81FD81EC0DFD1DFD8353
:10525000EC836E167F0658F662EE72E088E195E008
:105260000E94FA2F2FC0F80184910E94742D8A8326
:10527000F801319684910E94742DF9818F0F3A8143
:1052800020E1329F800D11248983882359F080EF1B
:1052900092E00E94112640E150E0698188E195E0AA
:1052A0000E946230780143E0E40EF11CF101849128
:1052B0008A3009F420CF8FEF92E00E94112602C0BD
:1052C000E12CF12CC7010F900F900F900F900F90D1
:1052D000DF91CF911F910F91FF90EF90DF90CF90D2
:1052E000BF90AF909F908F907F906F905F904F9006
:1052F0003F902F9008951F93CF93DF93162FC42FC5
:10530000D22F0E94ED27812F0E94ED278C2F0E9423
:10531000ED27C82F8D2F0E94ED272C2F30E0322F44
:105320002227A901480F511DCA01DF91CF911F917A
:105330000895CF93DF936EE073E088E195E00E94DB
:10534000F42F80911205909113050E94D32720E03D
:1053500041E060E080E30E947B29D82F80E0C82FE5
:1053600020E042E060E080E30E947B29C82BD92B3B
:105370000E94F42740E150E0BE0188E195E00E94E0
:105380008130209731F462E273E088E195E00E9479
:10539000FA2FCE01DF91CF910895EF92FF920F93F4
:1053A0001F93CF93DF938C01EB016AE373E088E1F5
:1053B00095E00E94FA2FF801E490E11007C0F8018F
:1053C0003196F490FF2009F460C030C0809112053E
:1053D000909113050E94D32720E040E060E088E52B
:1053E0000E947B29F82E0E94F427FE018491F82266
:1053F0006DE473E088E195E00E94F42F40E150E015
:105400006E2D88E195E00E9462306AE573E088E1E4
:1054100095E00E94F42F40E150E06F2D88E195E087
:105420000E946230EF1459F280E09DC08091120515
:10543000909113050E94D32720E040E060E080E5D2
:105440000E947B29E82E0E94F4276FE573E088E133
:1054500095E00E94F42F40E150E06F2D88E195E047
:105460000E9462306DE673E088E195E00E94F42FBF
:1054700040E150E06E2D88E195E00E946230FE012F
:105480003196E491EE21FE12CFCFF8013296E490EE
:10549000EE2079F180911205909113050E94D32797
:1054A00020E040E068E088E50E947B29F82E0E9419
:1054B000F427FE013296E491FE2264E773E088E16E
:1054C00095E00E94F42F40E150E06E2D88E195E0D8
:1054D0000E9462306DE673E088E195E00E94F42F4F
:1054E00040E150E06F2D88E195E00E946230EF10BE
:1054F0009BCFF80133960491002381F1809112052E
:10550000909113050E94D32720E040E068E080E5F9
:105510000E947B29182F0E94F427FE013396E49104
:10552000C12FCE2363E873E088E195E00E94F42F59
:1055300040E150E0602F88E195E00E9462306DE626
:1055400073E088E195E00E94F42F40E150E06C2F79
:1055500088E195E00E9462300C1366CF88E195E007
:105560000E94F62F81E0DF91CF911F910F91FF9064
:10557000EF900895242F880F880F880F462F672FEC
:10558000805C0C947B295F926F927F928F929F92A6
:10559000AF92BF92CF92DF92EF92FF920F931F9341
:1055A000CF93DF938C01E8012196F801849180323A
:1055B00011F48E01F8CF97EF980F9230D0F38A3321
:1055C00019F081E993E012C1FE0184910E94742DCB
:1055D000A82EF801329684910E94742DE82EF801CD
:1055E000339684910E94742DB82EF80134968491DC
:1055F0000E94742D782EF801359684910E94742DA6
:10560000C82EF801369684910E94742DD82EF80188
:10561000379684910E94742DF82EF29430EFF32285
:10562000E8012996F801389684910E94742D8F0D17
:10563000813009F4DFC0882339F02196FE013197CB
:10564000E491EA30D1F7B5CFF12CF0E1AF9EE00C58
:10565000F11C112420E1B29E700C11248D2D30E13B
:10566000C39E800D1124C72CD12CDC2CCC24C80E59
:10567000D11C870D782E7E0C8601802F8C1990E02E
:10568000FE0132965F01FE018E159F0508F089C06C
:1056900084910E94742D682E629480EF6822E50147
:1056A000F501319784910E94742D680E760C8091DB
:1056B0001005909111050E94D3275801B694A79424
:1056C000512E5694862C912C20E04A2D652D00FFFA
:1056D0002DC088E20E947B2999278816990609F433
:1056E0005BC06AE973E088E195E00E94F42F40E135
:1056F00050E0B80188E195E00E947B306BEB73E0ED
:1057000088E195E00E94F42F40E150E0662D88E1A9
:1057100095E00E94623069EC73E088E195E00E94B8
:10572000F42F20E04A2D652D88E22BC080E20E94F4
:105730007B2999278816990679F16AE973E088E14F
:1057400095E00E94F42F40E150E0B80188E195E037
:105750000E947B306BEB73E088E195E00E94F42FB0
:1057600040E150E0662D88E195E00E94623069ECEE
:1057700073E088E195E00E94F42F20E04A2D652D2A
:1057800080E20E947B29BC01772740E150E088E15C
:1057900095E00E9481302CC00E94F4270F5F1F4FBC
:1057A0006CCF84910E94742D182FFE013196849144
:1057B0000E94742D870D782EF0E11F9F700C11242C
:1057C000772061F080EF92E00E94112640E150E0E6
:1057D000672D88E195E00E9462300AC02396F501AA
:1057E00084918A3009F4E5CE8FEF92E00E94112671
:1057F00080E001C081E0DF91CF911F910F91FF9078
:10580000EF90DF90CF90BF90AF909F908F907F9060
:105810006F905F90089580911205909113050E94FA
:10582000D32720E040E060E080EF0E947B2980FDEC
:10583000F8CF0C94F4271F93CF93DF93EC0161ED25
:1058400073E088E195E00E94F42F0E940B2CFE018A
:105850001491112341F160EE73E088E195E00E941C
:10586000F42F40E150E0612F88E195E00E94623022
:1058700066EF73E088E195E00E94F42F80911205B5
:10588000909113050E94D327212F40E060EE8CEA0F
:105890000E947B2940E150E0BC0188E195E00E9434
:1058A0007B300E94F4270E940B2CFE01319614914C
:1058B000112341F16BEF73E088E195E00E94F42F32
:1058C00040E150E0612F88E195E00E94623066EF90
:1058D00073E088E195E00E94F42F80911205909189
:1058E00013050E94D327212F40E060EA8CEA0E9432
:1058F0007B2940E150E0BC0188E195E00E947B30CB
:105900000E94F4270E940B2CFE0132961491112361
:1059100041F16FE074E088E195E00E94F42F40E1EE
:1059200050E0612F88E195E00E94623066EF73E0FD
:1059300088E195E00E94F42F809112059091130563
:105940000E94D327212F40E068EA8CEA0E947B293D
:1059500040E150E0BC0188E195E00E947B300E946C
:10596000F4270E940B2CFE013396C491CC2341F105
:1059700064E274E088E195E00E94F42F40E150E099
:105980006C2F88E195E00E94623066EF73E088E159
:1059900095E00E94F42F80911205909113050E94CA
:1059A000D3272C2F40E064EA8CEA0E947B2940E157
:1059B00050E0BC0188E195E00E947B300E94F42712
:1059C00088E195E00E94F62F81E0DF91CF911F9151
:1059D0000895CF92DF92EF92FF920F931F93CF9390
:1059E000DF937C01EB01C42E80911005909111058D
:1059F0000E94D32768E374E088E195E00E94F42FC9
:105A000040E150E0BE0188E195E00E948130C694FB
:105A1000D12C8701E12CF12CEC14FD0490F4F80159
:105A20004081B70180E00E94BA2AF8014181B701A4
:105A300081E00E94BA2AFFEFEF1AFF0A0E5F1F4FA4
:105A4000EBCFD695C795C07C20E04C2F6D2F8CE412
:105A50000E947B298C010E94F42767E474E088E1AE
:105A600095E00E94F42F40E150E0BE0188E195E00E
:105A70000E947B3069E574E088E195E00E94F42F94
:105A800040E150E0B80188E195E00E948130C01704
:105A9000D10721F40E940B2C81E001C080E0DF914E
:105AA000CF911F910F91FF90EF90DF90CF900895CD
:105AB00080911205909113050E94D32720E040E0C9
:105AC00060E88CEA0E947B290E94F4270C940B2C3E
:105AD000E2E1F5E083E580831182E0E1F5E081E534
:105AE000808381E08183089590ED980F9A3060F073
:105AF0009FEB980F963018F499EC980F05C080E64C
:105B000094E00E9411260895892F08951F93CF9342
:105B1000DF93182FEB0161E0812F0E94EC346EE1DE
:105B200070E080E090E00E94103460E0812F0E94DD
:105B3000EC346EE170E080E090E00E941034219738
:105B400050F7DF91CF911F910895CF93DF93FC0120
:105B50006491EC012196662331F088E195E00E9482
:105B60005D2ECE01F4CFDF91CF910895CF93CFB7C3
:105B7000F89480911705811127C0E6E1FBE4849138
:105B8000EFEFFAE49491E82FF0E0EE0FFF1FE95CED
:105B9000F44BA591B491EC91E92321F461E08AE002
:105BA0000E94EC3461E08AE00E94B0348CB58061E0
:105BB0008CBD8CB580648CBD61E08DE00E94B034FA
:105BC00061E08BE00E94B034809117058F5F809375
:105BD0001705CFBFCF9108959FB7F894809117050F
:105BE000882319F081508093170580911705811142
:105BF00005C08CB58F7B8CBD109216059FBF089594
:105C0000FC01918D228D892F90E0805C9F4F821B3B
:105C100091098F7399270895FC01918D828D9817B2
:105C200031F0828DE80FF11D858D90E008958FEFA2
:105C30009FEF0895FC01918D828D981761F0828D00
:105C4000DF01A80FB11D5D968C91928D9F5F9F73B0
:105C5000928F90E008958FEF9FEF08958EE79FE277
:105C6000892B49F080E090E0892B29F00E947E2F5B
:105C700081110C9400000895FC01848DDF01A80FB0
:105C8000B11DA35ABF4F2C91848D90E001968F7364
:105C90009927848FA689B7892C93A089B1898C9183
:105CA00080648C93938D848D981306C00288F38949
:105CB000E02D80818F7D80830895EF92FF920F9376
:105CC0001F93CF93DF93EC0181E0888F9B8D8C8DA8
:105CD000981305C0E889F989808185FD24C0F62ED6
:105CE0000B8D10E00F5F1F4F0F731127E02E8C8D6F
:105CF000E8120CC00FB607FCFACFE889F989808159
:105D000085FFF5CFCE010E943C2EF1CF8B8DFE0199
:105D1000E80FF11DE35AFF4FF0820B8FEA89FB89F0
:105D20008081806207C0EE89FF896083E889F989F4
:105D300080818064808381E090E0DF91CF911F912A
:105D40000F91FF90EF900895CF93DF93EC01888D32
:105D50008823C9F0EA89FB89808185FD05C0A8896F
:105D6000B9898C9186FD0FC00FB607FCF5CF8081F5
:105D700085FFF2CFA889B9898C9185FFEDCFCE013F
:105D80000E943C2EE7CFDF91CF910895CF92DF9212
:105D9000EF92FF921F93CF93DF93EC016A017B0197
:105DA000122F60E874E88EE190E0A70196010E944E
:105DB0004535DA01C9010197A109B109B695A79541
:105DC000979587959C01E889F98982E08083211560
:105DD00080E13807A8F0E889F989108260E472E46C
:105DE0008FE090E0A70196010E944535DA01C901D4
:105DF0000197A109B109B695A795979587959C013B
:105E0000EC85FD853083EE85FF852083188EEC8937
:105E1000FD891083EA89FB89808180618083EA891A
:105E2000FB89808188608083EA89FB898081806822
:105E30008083EA89FB8980818F7D8083DF91CF9188
:105E40001F91FF90EF90DF90CF9008951F920F92D7
:105E50000FB60F9211242F938F939F93EF93FF937D
:105E6000E0912805F09129058081E0912E05F091BF
:105E70002F0582FD12C09081809131058F5F8F7355
:105E800020913205821751F0E0913105F0E0E85E93
:105E9000FA4F958F8093310501C08081FF91EF917A
:105EA0009F918F912F910F900FBE0F901F9018957B
:105EB0001F920F920FB60F9211242F933F934F937F
:105EC0005F936F937F938F939F93AF93BF93EF9362
:105ED000FF9388E195E00E943C2EFF91EF91BF91E6
:105EE000AF919F918F917F916F915F914F913F9172
:105EF0002F910F900FBE0F901F90189588E195E09D
:105F00000E94002E21E0892B09F420E0822F0895C1
:105F1000E8E1F5E01382128288EE93E0A0E0B0E0C1
:105F200084839583A683B78383E794E091838083FA
:105F300085EC90E09587848784EC90E0978786874E
:105F400080EC90E0918B808B81EC90E0938B828B46
:105F500082EC90E0958B848B86EC90E0978B868B1F
:105F6000118E128E138E148E0895CF92DF92EF92BF
:105F7000FF920F931F93CF93DF936C017A018B01F4
:105F8000C0E0D0E0CE15DF0581F0D8016D918D0124
:105F9000D601ED91FC910190F081E02DC6010995AB
:105FA000892B11F02196EECF7E01C701DF91CF91B1
:105FB0001F910F91FF90EF90DF90CF9008956115A2
:105FC000710579F0FB0101900020E9F73197AF01ED
:105FD000461B570BDC01ED91FC910280F381E02D13
:105FE000099480E090E008950C94DF2F6FE774E04F
:105FF0000C94DF2F0F931F93CF93DF93EC010E943C
:10600000DF2F8C01CE010E94F62F800F911FDF91B0
:10601000CF911F910F9108958F929F92AF92BF924F
:10602000EF92FF920F931F93CF93DF93CDB7DEB71D
:10603000A1970FB6F894DEBF0FBECDBF7C01FA0169
:10604000CB0119A2223008F42AE08E010F5D1F4F08
:10605000822E912CA12CB12CBF01A50194010E948C
:106060004535F901CA01015011096A3014F4605D27
:1060700001C0695CD8016C93232B242B252B61F77D
:10608000B801C7010E94DF2FA1960FB6F894DEBFBA
:106090000FBECDBFDF91CF911F910F91FF90EF9079
:1060A000BF90AF909F908F9008952115310541F4D6
:1060B000DC01ED91FC910190F081E02D642F0994B9
:1060C0000C940C309A01462F50E060E070E00C9484
:1060D00055300F931F93CF93DF93EC010E946230F2
:1060E0008C01CE010E94F62F800F911FDF91CF917E
:1060F0001F910F9108959A01AB0160E070E00C943C
:1061000055300F931F93CF93DF93EC010E947B30A8
:106110008C01CE010E94F62F800F911FDF91CF914D
:106120001F910F9108954F925F926F927F928F927D
:106130009F92AF92BF92CF92DF92EF92FF920F9316
:106140001F93CF93DF9300D000D01F92CDB7DEB75F
:106150008B0129013A0190910301891721F09F3F9A
:1061600009F038C205C0EDEDFAE424912D8384C016
:1061700080930301EDEDFAE494919D839F3F09F430
:1061800029C2913009F44DC058F1923009F074C021
:106190001092B0001092B1009091B0009260909374
:1061A000B0009091B10091609093B100282F30E041
:1061B000F901E45FF44BE491F0E0EE0FFF1FE35DC3
:1061C000F44B459154915093B7054093B605F901AE
:1061D000EB50F54BE491E093B50592E09D83F6C159
:1061E00014BC15BC94B5926094BD95B5916095BDF5
:1061F000282F30E0F901E45FF44BE491F0E0EE0F7A
:10620000FF1FE35DF44B459154915093C5054093B6
:10621000C405F901EB50F54BE491E093C3051D82F1
:10622000D5C11092800010928100909181009860F9
:106230009093810090918100916090938100282F2C
:1062400030E0F901E45FF44BE491F0E0EE0FFF1F62
:10625000E35DF44B459154915093BE054093BD05C9
:10626000F901EB50F54BE491E093BC0561E00E942D
:10627000B03421E02D83A5C02D8127FDABC161E0A5
:106280000E94B0348D818D7F09F09BC04801A12C04
:10629000B12C60E079E08DE390E0A50194010E94CB
:1062A000673529833A834B835C8369017A0181E0F6
:1062B000C81AD108E108F1089FEFC916D104E1041A
:1062C000F10409F008F461C060E271EA87E090E04F
:1062D000A50194010E94673569017A0181E0C81A1D
:1062E000D108E108F1089D81923009F0F4C02FEF48
:1062F000C216D104E104F10409F008F458C068E4BE
:1063000078EE81E090E0A50194010E946735690173
:106310007A0181E0C81AD108E108F1089FEFC91697
:10632000D104E104F10409F008F44EC164E274EF11
:1063300080E090E0A50194010E94673569017A012F
:1063400081E0C81AD108E108F1089FEFC916D1040D
:10635000E104F10471F168F162E17AE780E090E034
:10636000A50194010E94673569017A0181E0C81A8C
:10637000D108E108F1089FEFC916D104E104F10446
:1063800011F008F0C9C085E015C081E09D81911130
:1063900011C095B5987F892B85BD411451046104C6
:1063A000710409F04FC02FEF3FEFA90163C082E0F5
:1063B00001C084E09091B100987F892B8093B10057
:1063C0003CC04801A12CB12C60E079E08DE390E065
:1063D000A50194010E94673569017A0181E0C81A1C
:1063E000D108E108F108C114D10491E0E906F104F3
:1063F00088F064E274EF80E090E0A50194010E94CF
:10640000673569017A0181E0C81AD108E108F1080D
:1064100083E001C081E09D81913079F49091810009
:10642000987F892B80938100411451046104710489
:1064300049F42FEF3FEFA9012CC04114510461042E
:10644000710471F0D801AA0FBB1FA30192010E9431
:10645000863528EE33E040E050E00E94453503C029
:106460002FEF3FEFA9018D81813099F0823019F132
:106470008111B0C0C7BC2093C6053093C7054093B7
:10648000C8055093C90580916E00826080936E00AC
:10649000A1C0D0928900C09288002093BF0530939C
:1064A000C0054093C1055093C20580916F00826082
:1064B00080936F008FC0C092B3002093B8053093D3
:1064C000B9054093BA055093BB0580917000826076
:1064D000809370007FC08FEFC816D104E104F104EF
:1064E000C9F0C0F064E274EF80E090E0A50194018F
:1064F0000E94673569017A0191E0C91AD108E10863
:10650000F1082FEFC216D104E104F10409F080F57F
:1065100083E03CCF82E03ACF69E07DE380E090E029
:10652000A50194010E94673569017A0181E0C81ACA
:10653000D108E108F1089FEFC916D104E104F10484
:10654000A9F0A0F089819A81AB81BC812AE0B59540
:10655000A795979587952A95D1F76C017D0121E044
:10656000C21AD108E108F10887E024CF86E022CFE3
:1065700069E07DE380E090E0A50194010E94673529
:1065800069017A0181E0C81AD108E108F1089FEF9A
:10659000C916D104E104F104A9F0A0F089819A811F
:1065A000AB81BC814AE0B595A795979587954A95AB
:1065B000D1F76C017D0121E0C21AD108E108F10890
:1065C00085E0E4CE84E0E2CE83E0F4CE61E00E9498
:1065D000B0345CCE0F900F900F900F900F90DF9122
:1065E000CF911F910F91FF90EF90DF90CF90BF90D0
:1065F000AF909F908F907F906F905F904F90089595
:10660000813039F018F0823051F0089510926E0008
:10661000089580916F008D7F80936F000895809121
:1066200070008D7F8093700081E08093B000809136
:10663000B100887F84608093B1001092B300089508
:10664000CF93C82F80910301C81307C0EDEDFAE482
:1066500084919FEF9093030101C08FEF0E9400335C
:1066600060E08C2FCF910C94EC341F920F920FB6F8
:106670000F9211242F933F934F935F936F937F93C8
:106680008F939F93AF93BF93EF93FF938091B80540
:106690009091B905A091BA05B091BB05892B8A2BC1
:1066A0008B2B51F19091B505E091B605F091B705AE
:1066B0008081892780838091B8059091B905A09148
:1066C000BA05B091BB05181619061A061B06C4F4C4
:1066D0008091B8059091B905A091BA05B091BB051C
:1066E0000197A109B1098093B8059093B905A093CA
:1066F000BA05B093BB0504C0809103010E9420330A
:10670000FF91EF91BF91AF919F918F917F916F9189
:106710005F914F913F912F910F900FBE0F901F905F
:10672000189508950E944C340E9491330E94CD2503
:10673000CEE2DEE20E94BA262097E1F30E942E2EDE
:10674000F9CF1F920F920FB60F9211242F933F9300
:106750008F939F93AF93BF938091CB059091CC057E
:10676000A091CD05B091CE053091CA0526E0230F4A
:106770002D3720F40296A11DB11D05C029E8230F75
:106780000396A11DB11D2093CA058093CB0590935C
:10679000CC05A093CD05B093CE058091CF05909107
:1067A000D005A091D105B091D2050196A11DB11DD2
:1067B0008093CF059093D005A093D105B093D205D7
:1067C000BF91AF919F918F913F912F910F900FBEED
:1067D0000F901F9018953FB7F8948091CF05909136
:1067E000D005A091D105B091D20526B5A89B05C0D2
:1067F0002F3F19F00196A11DB11D3FBFBA2FA92F40
:10680000982F8827820F911DA11DB11DBC01CD01BC
:1068100043E0660F771F881F991F4A95D1F70895A7
:106820008F929F92AF92BF92CF92DF92EF92FF92A0
:106830006B017C010E94EB334B015C01C114D1045C
:10684000E104F10401F10E9444350E94EB33DC01C4
:10685000CB0188199909AA09BB09883E9340A10573
:10686000B10560F321E0C21AD108E108F10888EE11
:10687000880E83E0981EA11CB11CC114D104E10450
:10688000F10419F7DBCFFF90EF90DF90CF90BF902E
:10689000AF909F908F900895789484B5826084BD66
:1068A00084B5816084BD85B5826085BD85B5816014
:1068B00085BDEEE6F0E0808181608083E1E8F0E074
:1068C0001082808182608083808181608083E0E8A3
:1068D000F0E0808181608083E1EBF0E08081846082
:1068E0008083E0EBF0E0808181608083EAE7F0E084
:1068F00080818460808380818260808380818E7FBC
:1069000080838081806880831092C10008958430E4
:1069100081F028F4823099F08330A1F00895883016
:10692000A9F08930B9F08530D1F4809180008F7D55
:1069300003C0809180008F7780938000089584B594
:106940008F7702C084B58F7D84BD08958091B0009B
:106950008F7703C08091B0008F7D8093B000089541
:10696000CF93DF9390E0FC01EB50F54B2491FC01B9
:10697000E45FF44B8491882361F190E0880F991FC4
:10698000FC01E95CF44BC591D491FC01E35DF44B4F
:10699000A591B491611109C09FB7F89488812095A1
:1069A00082238883EC912E230BC0623061F49FB761
:1069B000F8948881322F309583238883EC912E2B95
:1069C0002C939FBF06C08FB7F894E8812E2B2883A5
:1069D0008FBFDF91CF9108951F93CF93DF93282F1F
:1069E00030E0F901E252F54B8491F901EB50F54B9F
:1069F000D491F901E45FF44BC491CC23C1F0162F7C
:106A000081110E948734EC2FF0E0EE0FFF1FE35D51
:106A1000F44BA591B4919FB7F894111104C08C91D7
:106A2000D095D82302C0EC91DE2BDC939FBFDF9181
:106A3000CF911F910895CF93DF93282F30E0F90174
:106A4000E252F54B8491F901EB50F54BD491F901E9
:106A5000E45FF44BC491CC2391F081110E94873400
:106A6000EC2FF0E0EE0FFF1FED5DF44BA591B4911C
:106A7000EC91ED2381E090E021F480E002C080E021
:106A800090E0DF91CF9108950895A1E21A2EAA1BFC
:106A9000BB1BFD010DC0AA1FBB1FEE1FFF1FA217CE
:106AA000B307E407F50720F0A21BB30BE40BF50BCB
:106AB000661F771F881F991F1A9469F76095709554
:106AC000809590959B01AC01BD01CF010895052EE5
:106AD00097FB1EF400940E947E3557FD07D00E945C
:106AE000453507FC03D04EF40C947E355095409507
:106AF000309521953F4F4F4F5F4F0895909580956A
:106B0000709561957F4F8F4F9F4F08950E949735E5
:106B1000A59F900DB49F900DA49F800D911D1124F1
:106B20000895EE0FFF1F0590F491E02D0994A29FA8
:106B3000B001B39FC001A39F700D811D1124911D51
:106B4000B29F700D811D1124911D0895F894FFCFFF
:106B5000016800FF0A416461426F6F744C6F6164A9
:106B6000657220426F6F7473747261702070726FFF
:106B70006772616D6D657220286F726967696E61F9
:106B80006C6C79204F7074694C6F6164657220423F
:106B9000696C6C20576573746669656C642028574E
:106BA00065737466572929005374617274696E673E
:106BB0002050726F6772616D204D6F646500205BBD
:106BC0004F4B5D000A5479706520274727206F726C
:106BD0002068697420425554544F4E20666F7220CD
:106BE0006E6578742063686970005369676E6174BC
:106BF000757265206661696C00496D616765206624
:106C000061696C0045726173696E672063686970C1
:106C10000050726F6772616D6D696E6720467573A3
:106C20006573206661696C004661696C65642074F7
:106C30006F207665726966792066757365730046A4
:106C40007573657320736574202620766572696696
:106C500069656400506167652073697A653A200050
:106C6000436869702073697A653A200057726974C5
:106C7000696E672061646472657373202400466CDA
:106C80006173682070726F6772616D6D696E6720E5
:106C90006661696C6564000A5665726966696E674B
:106CA00020666C6173682E2E2E004661696C6564E7
:106CB00020746F2076657269667920636869700058
:106CC00009466C617368207665726966696564203F
:106CD000636F72726563746C7921004675736573B6
:106CE00020766572696669656420636F7272656398
:106CF000746C792100536561726368696E67206600
:106D00006F7220696D6167652E2E2E00204E6F74A4
:106D100020466F756E64002020466F756E642022D9
:106D2000002220666F7220004E6F20636F6C6F6EC2
:106D30003F00706167652069732066756C6C210087
:106D400042616420636865636B73756D3A20004E21
:106D50006F20656E64206F66206C696E65000A5254
:106D6000656164696E67207369676E6174757265C9
:106D70003A002020286E6F2074617267657420616C
:106D8000747461636865643F290056657269667949
:106D9000696E672066757365732E2E2E00094C6F21
:106DA000636B20467573653A2000206973200009E3
:106DB0004C6F7720467573653A20307800206973F0
:106DC00020307800094869676820467573653A2065
:106DD0003078000945787420467573653A2030781C
:106DE000004E6F20636F6C6F6E0076657269666926
:106DF000636174696F6E206572726F7220617420B6
:106E000061646472657373203078002053686F7515
:106E10006C6420626520307800206E6F74203078BA
:106E2000000A53657474696E672066757365730034
:106E30000A2020536574204C6F636B204675736580
:106E400020746F3A2000202D3E20002020536574CE
:106E5000204C6F77204675736520746F3A200020B0
:106E600020536574204869676820467573652074EF
:106E70006F3A2000202053657420457874204675B1
:106E8000736520746F3A2000466C617368696E67A1
:106E9000207061676520002020436F6D6D6974204C
:106EA000506167653A20307800202D3E2030780010
:106EB0004261642068657820646967697421000014
:106EC0000000005D2EB52F002E1A2E0C2EA42E0DC4
:0E6ED0000A006E616E00696E66006F766600E5
:00000001FF
