:100000000C9462000C948A000C948A000C948A0070
:100010000C948A000C948A000C948A000C948A0038
:100020000C948A000C948A000C948A000C948A0028
:100030000C948A000C948A000C948A000C948A0018
:100040000C94FC020C948A000C9433020C9465020C
:100050000C948A000C948A000C948A000C948A00F8
:100060000C948A000C948A0000000009000302002E
:10007000000405080000000000000000000000016E
:10008000020408102040800102040810200102042C
:100090000810204080400404040404040404020204
:1000A000020202020303030303030202030000002F
:1000B00000250028002B0000000000240027002A53
:1000C0000000950211241FBECFEFD8E0DEBFCDBFE8
:1000D00011E0A0E0B1E0ECE6F9E002C005900D927D
:1000E000A031B107D9F721E0A0E1B1E001C01D9234
:1000F000AB3BB207E1F710E0C2E6D0E004C02197C5
:10010000FE010E94AE04C136D107C9F70E94ED027C
:100110000C94B4040C9400001092140168EE73E087
:1001200080E090E00E94770361E084E10E94200477
:1001300061E088E00E94200461E088E00E945C04A5
:1001400026E040E056E960E070E085E191E00C9443
:10015000D3010F931F93CF93DF9311E0C0E0DFE350
:1001600085E191E00E940D01892B39F185E191E053
:100170000E942701803329F0893631F08032D1F492
:1001800009C010931401ECCF6FE385E191E00E9468
:100190006A0110C080911401882361F061E084E15C
:1001A0000E945C04F8941092B0001092800014BC7D
:1001B000FE01099510921401D3CF0E9446030091CD
:1001C0001001109111012091120130911301DC01F5
:1001D000CB01801B910BA20BB30B853F9140A10576
:1001E000B105B0F061E084E10E945C0486E990E032
:1001F0000E94B30360E084E10E945C040E94460315
:100200006093100170931101809312019093130178
:10021000DF91CF911F910F910895FC01918D228D57
:10022000892F90E0805C9F4F821B91098F739927E3
:100230000895FC01918D828D981731F0828DE80F21
:10024000F11D858D90E008958FEF9FEF0895FC01DB
:10025000918D828D981761F0828DDF01A80FB11DFD
:100260005D968C91928D9F5F9F73928F90E0089521
:100270008FEF9FEF08958BE892E0892B49F080E0A3
:1002800090E0892B29F00E948B0281110C940000D0
:100290000895FC01848DDF01A80FB11DA35ABF4F43
:1002A0002C91848D90E001968F739927848FA68975
:1002B000B7892C93A089B1898C9180648C93938D9C
:1002C000848D981306C00288F389E02D80818F7D8C
:1002D00080830895EF92FF920F931F93CF93DF9344
:1002E000EC0181E0888F9B8D8C8D981305C0E88987
:1002F000F989808185FD24C0F62E0B8D10E00F5FFB
:100300001F4F0F731127E02E8C8DE8120CC00FB613
:1003100007FCFACFE889F989808185FFF5CFCE0106
:100320000E944901F1CF8B8DFE01E80FF11DE35AC8
:10033000FF4FF0820B8FEA89FB898081806207C0C2
:10034000EE89FF896083E889F989808180648083F0
:1003500081E090E0DF91CF911F910F91FF90EF909E
:100360000895CF93DF93EC01888D8823C9F0EA8943
:10037000FB89808185FD05C0A889B9898C9186FD9E
:100380000FC00FB607FCF5CF808185FFF2CFA8899B
:10039000B9898C9185FFEDCFCE010E944901E7CF4D
:1003A000DF91CF910895CF92DF92EF92FF921F934A
:1003B000CF93DF93EC016A017B01122F60E874E8B0
:1003C0008EE190E0A70196010E948C04DA01C90138
:1003D0000197A109B109B695A795979587959C01B5
:1003E000E889F98982E08083211580E13807A8F047
:1003F000E889F989108260E472E48FE090E0A70157
:1004000096010E948C04DA01C9010197A109B10982
:10041000B695A795979587959C01EC85FD853083CA
:10042000EE85FF852083188EEC89FD891083EA898B
:10043000FB89808180618083EA89FB898081886073
:100440008083EA89FB89808180688083EA89FB89CF
:1004500080818F7D8083DF91CF911F91FF90EF90FE
:10046000DF90CF9008951F920F920FB60F92112434
:100470002F938F939F93EF93FF93E0912501F0913A
:1004800026018081E0912B01F0912C0182FD12C0A8
:10049000908180912E018F5F8F7320912F018217A1
:1004A00051F0E0912E01F0E0EB5EFE4F958F8093CE
:1004B0002E0101C08081FF91EF919F918F912F912B
:1004C0000F900FBE0F901F9018951F920F920FB6AE
:1004D0000F9211242F933F934F935F936F937F93CA
:1004E0008F939F93AF93BF93EF93FF9385E191E039
:1004F0000E944901FF91EF91BF91AF919F918F9120
:100500007F916F915F914F913F912F910F900FBE0F
:100510000F901F90189585E191E00E940D0121E058
:10052000892B09F420E0822F0895E5E1F1E01382A0
:10053000128288EE93E0A0E0B0E084839583A683E6
:10054000B78384E091E09183808385EC90E0958788
:10055000848784EC90E09787868780EC90E0918B8D
:10056000808B81EC90E0938B828B82EC90E0958B7A
:10057000848B86EC90E0978B868B118E128E138E77
:10058000148E0895CF92DF92EF92FF920F931F93F4
:10059000CF93DF936C017A018B01C0E0D0E0CE15E0
:1005A000DF0581F0D8016D918D01D601ED91FC91AF
:1005B0000190F081E02DC6010995892B11F021965B
:1005C000EECF7E01C701DF91CF911F910F91FF9078
:1005D000EF90DF90CF90089508950E94BC030E9491
:1005E000EC020E948C00CBE3D1E00E94A90020978E
:1005F000E1F30E943B01F9CF1F920F920FB60F92C9
:1006000011242F933F938F939F93AF93BF93809128
:10061000B3019091B401A091B501B091B6013091B0
:10062000B20126E0230F2D3720F40296A11DB11D43
:1006300005C029E8230F0396A11DB11D2093B20127
:100640008093B3019093B401A093B501B093B60128
:100650008091B7019091B801A091B901B091BA0110
:100660000196A11DB11D8093B7019093B801A0938D
:10067000B901B093BA01BF91AF919F918F913F9112
:100680002F910F900FBE0F901F9018952FB7F894D1
:100690006091B3017091B4018091B5019091B60160
:1006A0002FBF08953FB7F8948091B7019091B8019A
:1006B000A091B901B091BA0126B5A89B05C02F3F02
:1006C00019F00196A11DB11D3FBFBA2FA92F982F78
:1006D0008827820F911DA11DB11DBC01CD0143E0F2
:1006E000660F771F881F991F4A95D1F708958F923B
:1006F0009F92AF92BF92CF92DF92EF92FF926B01E7
:100700007C010E9452034B015C01C114D104E1043D
:10071000F10401F10E948B040E945203DC01CB0121
:1007200088199909AA09BB09883E9340A105B1051A
:1007300060F321E0C21AD108E108F10888EE880EC2
:1007400083E0981EA11CB11CC114D104E104F10482
:1007500019F7DBCFFF90EF90DF90CF90BF90AF9075
:100760009F908F9008958330910528F0880F991FEE
:1007700004970197F1F70895789484B5826084BD59
:1007800084B5816084BD85B5826085BD85B5816095
:1007900085BDEEE6F0E0808181608083E1E8F0E0F5
:1007A0001082808182608083808181608083E0E824
:1007B000F0E0808181608083E1EBF0E08081846003
:1007C0008083E0EBF0E0808181608083EAE7F0E005
:1007D00080818460808380818260808380818E7F3D
:1007E00080838081806880831092C1000895843066
:1007F00081F028F4823099F08330A1F00895883098
:10080000A9F08930B9F08530D1F4809180008F7DD6
:1008100003C0809180008F7780938000089584B515
:100820008F7702C084B58F7D84BD08958091B0001C
:100830008F7703C08091B0008F7D8093B0000895C2
:10084000CF93DF9390E0FC01E158FF4F2491FC012E
:10085000EA56FF4F8491882361F190E0880F991F39
:10086000FC01E954FF4FC591D491FC01E355FF4FC2
:10087000A591B491611109C09FB7F8948881209522
:1008800082238883EC912E230BC0623061F49FB7E2
:10089000F8948881322F309583238883EC912E2B16
:1008A0002C939FBF06C08FB7F894E8812E2B288326
:1008B0008FBFDF91CF9108951F93CF93DF93282FA0
:1008C00030E0F901E859FF4F8491F901E158FF4FF9
:1008D000D491F901EA56FF4FC491CC23C1F0162FF1
:1008E00081110E94F703EC2FF0E0EE0FFF1FE3559C
:1008F000FF4FA591B4919FB7F894111104C08C914A
:10090000D095D82302C0EC91DE2BDC939FBFDF9102
:10091000CF911F9108950895A1E21A2EAA1BBB1B27
:10092000FD010DC0AA1FBB1FEE1FFF1FA217B307BB
:10093000E407F50720F0A21BB30BE40BF50B661FD1
:10094000771F881F991F1A9469F760957095809595
:1009500090959B01AC01BD01CF010895EE0FFF1FE3
:0C0960000590F491E02D0994F894FFCF6D
:10096C00000000006A01C2020D0127011901B1014A
:00000001FF
